:020000040000FA
:10000000000002287630FE000130FF008030000042
:1000100000002A210000000083160000A1007F08D4
:10002000A0007830A2000130A30083160000200851
:10003000A4002108A500FF30A007031CA103250888
:10004000240403199A2804302207A400A501A50D51
:100050002308A5072408FE002508FF0080300000C3
:1000600000002A210000000083160000A7007F087E
:10007000A6002208FE002308FF00803000000000D8
:100080002A210000000083160000A900A5007F08B7
:10009000A400A80002302207A400A501A50D230892
:1000A000A5072408FE002508FF008030000000009E
:1000B0002A210000000083160000A500AB007F0885
:1000C000AA00A400831600002608AA002708AB0097
:1000D000FF30A607031CA7032B082A040319932843
:1000E0002808FE002908FF008030000000001721CA
:1000F0000000000083160000AA00240883120313E6
:100100008400831383160000251883172A0883129E
:100110000313800083160000A80A0319A90AA40A81
:100120000319A50A6228063083160000A2070318E7
:10013000A30A1528000000009E280800013083163D
:100140008500831285018316AC01AD018316AC0ACC
:100150000319AD0A2C08643A031DB4282D08003A8F
:10016000031DB428AC01AD01003083162D02031D20
:10017000BB28DD302C020318A62883128514051530
:10018000851505166430FF0000304B218316AE0143
:100190008312851CCD288316AE0A83162E09AE0065
:1001A0002E0C0318D52883128510031CD92883121E
:1001B00085148316AE018312051DE0288316AE0A4E
:1001C00083162E09AE002E0C0318E82883120511A1
:1001D000031CEC28831205158316AE018312851DBE
:1001E000F3288316AE0A83162E09AE002E0C0318D0
:1001F000FB2883128511031CFF28831285158316A3
:10020000AE018312051E06298316AE0A83162E0937
:10021000AE002E0C03180E2983120512031C12299E
:10022000831205168312051C1229A6280800003A1D
:1002300003191E29803A0319252900347E088400F9
:1002400083137F188317000808007F088A007E0840
:1002500082000800003A03193229803A03193C2928
:10026000FF0100347E08840083137F188317000881
:10027000FF00840A00080800000000002521FD009E
:10028000FE0FFF03FF0A000000002521FC007D088F
:10029000FF007C0808008316B0007F08AF00B101A2
:1002A000B201831630083202031D58292F0831028B
:1002B00003187529FB308316B3000430B400FF30F7
:1002C00083163307B500FF30B60034080318340F27
:1002D000B6073508B3003608B40036083504031DE8
:1002E0005F29B10A0319B20A512908000134003408
:0E02F0007E340134B73400340134003400345D
:00000001FF
