:020000040000FA
:10000000000002286F30FE000130FF008030000049
:10001000000023210000000083160000A1007F08DB
:10002000A0007130A2000130A30083160000200858
:10003000A4002108A500FF30A007031CA103250888
:10004000240403199A2804302207A400A501A50D51
:100050002308A5072408FE002508FF0080300000C3
:10006000000023210000000083160000A7007F0885
:10007000A6002208FE002308FF00803000000000D8
:1000800023210000000083160000A900A5007F08BE
:10009000A400A80002302207A400A501A50D230892
:1000A000A5072408FE002508FF008030000000009E
:1000B00023210000000083160000A500AB007F088C
:1000C000AA00A400831600002608AA002708AB0097
:1000D000FF30A607031CA7032B082A040319932843
:1000E0002808FE002908FF008030000000001021D1
:1000F0000000000083160000AA00240883120313E6
:100100008400831383160000251883172A0883129E
:100110000313800083160000A80A0319A90AA40A81
:100120000319A50A6228063083160000A2070318E7
:10013000A30A1528000000009E280800013083163D
:100140008500831285018316AC01AD018316AC0ACC
:100150000319AD0A2C08643A031DB4282D08003A8F
:10016000031DB428AC01AD0183120518A62885141F
:10017000051585150516E830FF0003304421831668
:10018000AE018312851CC6288316AE0A83162E097B
:10019000AE002E0C0318CE2883128510031CD22823
:1001A000831285148316AE018312051DD928831688
:1001B000AE0A83162E09AE002E0C0318E128831216
:1001C0000511031CE528831205158316AE01831261
:1001D000851DEC288316AE0A83162E09AE002E0C60
:1001E0000318F42883128511031CF828831285153F
:1001F0008316AE018312051EFF288316AE0A8316EE
:100200002E09AE002E0C0318072983120512031CB9
:100210000B29831205168312051C0B29A62808003A
:10022000003A03191729803A03191E2900347E0861
:10023000840083137F188317000808007F088A0052
:100240007E0882000800003A03192B29803A03191E
:100250003529FF0100347E08840083137F1883173B
:100260000008FF00840A00080800000000001E21AA
:10027000FD00FE0FFF03FF0A000000001E21FC002E
:100280007D08FF007C0808008316B0007F08AF00DF
:10029000B101B201831630083202031D51292F0823
:1002A000310203186E29FB308316B3000430B4000A
:1002B000FF3083163307B500FF30B600340803184B
:1002C000340FB6073508B3003608B40036083504D5
:1002D000031D5829B10A0319B20A4A29080001343A
:1002E000003477340134B73400340134003400343E
:00000001FF
